{
  "_format": "hh-sol-artifact-1",
  "contractName": "ServiceManager",
  "sourceName": "contracts/ServiceManager.sol",
  "abi": [
    {
      "anonymous": false,
      "inputs": [
        {
          "indexed": false,
          "internalType": "string",
          "name": "message",
          "type": "string"
        }
      ],
      "name": "ErrorNotice",
      "type": "event"
    },
    {
      "anonymous": false,
      "inputs": [
        {
          "indexed": false,
          "internalType": "bytes",
          "name": "data",
          "type": "bytes"
        }
      ],
      "name": "ErrorNoticeBytes",
      "type": "event"
    },
    {
      "anonymous": false,
      "inputs": [
        {
          "indexed": true,
          "internalType": "address",
          "name": "client",
          "type": "address"
        },
        {
          "indexed": true,
          "internalType": "address",
          "name": "provider",
          "type": "address"
        },
        {
          "indexed": false,
          "internalType": "address",
          "name": "agreemenAddress",
          "type": "address"
        }
      ],
      "name": "NewAgreement",
      "type": "event"
    },
    {
      "anonymous": false,
      "inputs": [
        {
          "indexed": true,
          "internalType": "address",
          "name": "owner",
          "type": "address"
        }
      ],
      "name": "RegisterServiceProvider",
      "type": "event"
    },
    {
      "inputs": [
        {
          "internalType": "string",
          "name": "_companyName",
          "type": "string"
        },
        {
          "internalType": "string",
          "name": "_email",
          "type": "string"
        },
        {
          "internalType": "string",
          "name": "_phone",
          "type": "string"
        },
        {
          "internalType": "uint256",
          "name": "_serviceAmount",
          "type": "uint256"
        },
        {
          "internalType": "enum ServiceManager.ServiceCategory",
          "name": "_serviceCategory",
          "type": "uint8"
        }
      ],
      "name": "createNewServiceProvider",
      "outputs": [],
      "stateMutability": "nonpayable",
      "type": "function"
    },
    {
      "inputs": [
        {
          "internalType": "address",
          "name": "_provider",
          "type": "address"
        }
      ],
      "name": "createServiceAgreement",
      "outputs": [],
      "stateMutability": "nonpayable",
      "type": "function"
    },
    {
      "inputs": [],
      "name": "getAllServiceProviders",
      "outputs": [
        {
          "components": [
            {
              "internalType": "address",
              "name": "owner",
              "type": "address"
            },
            {
              "internalType": "string",
              "name": "companyName",
              "type": "string"
            },
            {
              "internalType": "string",
              "name": "email",
              "type": "string"
            },
            {
              "internalType": "string",
              "name": "phone",
              "type": "string"
            },
            {
              "internalType": "uint256",
              "name": "serviceAmount",
              "type": "uint256"
            },
            {
              "internalType": "enum ServiceManager.ServiceCategory",
              "name": "serviceCategory",
              "type": "uint8"
            },
            {
              "internalType": "uint256",
              "name": "index",
              "type": "uint256"
            }
          ],
          "internalType": "struct ServiceManager.ServicesProvider[]",
          "name": "",
          "type": "tuple[]"
        }
      ],
      "stateMutability": "view",
      "type": "function"
    },
    {
      "inputs": [
        {
          "internalType": "address",
          "name": "_address",
          "type": "address"
        }
      ],
      "name": "getServiceProvider",
      "outputs": [
        {
          "components": [
            {
              "internalType": "address",
              "name": "owner",
              "type": "address"
            },
            {
              "internalType": "string",
              "name": "companyName",
              "type": "string"
            },
            {
              "internalType": "string",
              "name": "email",
              "type": "string"
            },
            {
              "internalType": "string",
              "name": "phone",
              "type": "string"
            },
            {
              "internalType": "uint256",
              "name": "serviceAmount",
              "type": "uint256"
            },
            {
              "internalType": "enum ServiceManager.ServiceCategory",
              "name": "serviceCategory",
              "type": "uint8"
            },
            {
              "internalType": "uint256",
              "name": "index",
              "type": "uint256"
            }
          ],
          "internalType": "struct ServiceManager.ServicesProvider",
          "name": "",
          "type": "tuple"
        }
      ],
      "stateMutability": "view",
      "type": "function"
    }
  ],
  "bytecode": "0x608060405234801561001057600080fd5b50612221806100206000396000f3fe60806040523480156200001157600080fd5b5060043610620000525760003560e01c806304a15d7414620000575780638cc01c8614620000795780639f92333d14620000af578063c35eb8da14620000cf575b600080fd5b62000061620000ef565b6040516200007091906200194d565b60405180910390f35b62000097600480360381019062000091919062001418565b62000562565b604051620000a6919062001a63565b60405180910390f35b620000cd6004803603810190620000c7919062001418565b6200099f565b005b620000ed6004803603810190620000e7919062001444565b62000eb3565b005b6060600060018054905067ffffffffffffffff81111562000139577f4e487b7100000000000000000000000000000000000000000000000000000000600052604160045260246000fd5b6040519080825280602002602001820160405280156200017657816020015b6200016262001217565b815260200190600190039081620001585790505b50905060005b6001805490508110156200055a57600060018281548110620001c7577f4e487b7100000000000000000000000000000000000000000000000000000000600052603260045260246000fd5b9060005260206000200160009054906101000a900473ffffffffffffffffffffffffffffffffffffffff1690506000808273ffffffffffffffffffffffffffffffffffffffff1673ffffffffffffffffffffffffffffffffffffffff1681526020019081526020016000206040518060e00160405290816000820160009054906101000a900473ffffffffffffffffffffffffffffffffffffffff1673ffffffffffffffffffffffffffffffffffffffff1673ffffffffffffffffffffffffffffffffffffffff168152602001600182018054620002a59062001c4f565b80601f0160208091040260200160405190810160405280929190818152602001828054620002d39062001c4f565b8015620003245780601f10620002f85761010080835404028352916020019162000324565b820191906000526020600020905b8154815290600101906020018083116200030657829003601f168201915b505050505081526020016002820180546200033f9062001c4f565b80601f01602080910402602001604051908101604052809291908181526020018280546200036d9062001c4f565b8015620003be5780601f106200039257610100808354040283529160200191620003be565b820191906000526020600020905b815481529060010190602001808311620003a057829003601f168201915b50505050508152602001600382018054620003d99062001c4f565b80601f0160208091040260200160405190810160405280929190818152602001828054620004079062001c4f565b8015620004585780601f106200042c5761010080835404028352916020019162000458565b820191906000526020600020905b8154815290600101906020018083116200043a57829003601f168201915b50505050508152602001600482015481526020016005820160009054906101000a900460ff166004811115620004b7577f4e487b7100000000000000000000000000000000000000000000000000000000600052602160045260246000fd5b6004811115620004f0577f4e487b7100000000000000000000000000000000000000000000000000000000600052602160045260246000fd5b815260200160068201548152505083838151811062000538577f4e487b7100000000000000000000000000000000000000000000000000000000600052603260045260246000fd5b6020026020010181905250508080620005519062001cbb565b9150506200017c565b508091505090565b6200056c62001217565b8160006001805490501415620005b9576040517f08c379a0000000000000000000000000000000000000000000000000000000008152600401620005b09062001a41565b60405180910390fd5b600073ffffffffffffffffffffffffffffffffffffffff166000808373ffffffffffffffffffffffffffffffffffffffff1673ffffffffffffffffffffffffffffffffffffffff16815260200190815260200160002060000160009054906101000a900473ffffffffffffffffffffffffffffffffffffffff1673ffffffffffffffffffffffffffffffffffffffff1614156200068d576040517f08c379a00000000000000000000000000000000000000000000000000000000081526004016200068490620019b9565b60405180910390fd5b6000808473ffffffffffffffffffffffffffffffffffffffff1673ffffffffffffffffffffffffffffffffffffffff1681526020019081526020016000206040518060e00160405290816000820160009054906101000a900473ffffffffffffffffffffffffffffffffffffffff1673ffffffffffffffffffffffffffffffffffffffff1673ffffffffffffffffffffffffffffffffffffffff1681526020016001820180546200073e9062001c4f565b80601f01602080910402602001604051908101604052809291908181526020018280546200076c9062001c4f565b8015620007bd5780601f106200079157610100808354040283529160200191620007bd565b820191906000526020600020905b8154815290600101906020018083116200079f57829003601f168201915b50505050508152602001600282018054620007d89062001c4f565b80601f0160208091040260200160405190810160405280929190818152602001828054620008069062001c4f565b8015620008575780601f106200082b5761010080835404028352916020019162000857565b820191906000526020600020905b8154815290600101906020018083116200083957829003601f168201915b50505050508152602001600382018054620008729062001c4f565b80601f0160208091040260200160405190810160405280929190818152602001828054620008a09062001c4f565b8015620008f15780601f10620008c557610100808354040283529160200191620008f1565b820191906000526020600020905b815481529060010190602001808311620008d357829003601f168201915b50505050508152602001600482015481526020016005820160009054906101000a900460ff16600481111562000950577f4e487b7100000000000000000000000000000000000000000000000000000000600052602160045260246000fd5b600481111562000989577f4e487b7100000000000000000000000000000000000000000000000000000000600052602160045260246000fd5b8152602001600682015481525050915050919050565b8060006001805490501415620009ec576040517f08c379a0000000000000000000000000000000000000000000000000000000008152600401620009e39062001a41565b60405180910390fd5b600073ffffffffffffffffffffffffffffffffffffffff166000808373ffffffffffffffffffffffffffffffffffffffff1673ffffffffffffffffffffffffffffffffffffffff16815260200190815260200160002060000160009054906101000a900473ffffffffffffffffffffffffffffffffffffffff1673ffffffffffffffffffffffffffffffffffffffff16141562000ac0576040517f08c379a000000000000000000000000000000000000000000000000000000000815260040162000ab790620019b9565b60405180910390fd5b3373ffffffffffffffffffffffffffffffffffffffff168273ffffffffffffffffffffffffffffffffffffffff16141562000b32576040517f08c379a000000000000000000000000000000000000000000000000000000000815260040162000b299062001a1f565b60405180910390fd5b60008060008473ffffffffffffffffffffffffffffffffffffffff1673ffffffffffffffffffffffffffffffffffffffff168152602001908152602001600020600401549050803373ffffffffffffffffffffffffffffffffffffffff1631101562000bd5576040517f08c379a000000000000000000000000000000000000000000000000000000000815260040162000bcc90620019fd565b60405180910390fd5b33838260405162000be690620012a3565b62000bf49392919062001910565b604051809103906000f0801562000c085760015b62000cf35762000c1762001dc5565b806308c379a0141562000c7c575062000c2f62001efb565b8062000c3c575062000c7e565b7fe5307846deb3ee14462a061cebc519cf970b90c5ef543f6a1c5de0511d3aecc58160405162000c6d919062001995565b60405180910390a15062000ced565b505b3d806000811462000cac576040519150601f19603f3d011682016040523d82523d6000602084013e62000cb1565b606091505b507f1528223f78b06a05b19325bfb9796bc977e6fdd9bf004652ec38c31c5daf36fd8160405162000ce3919062001971565b60405180910390a1505b62000eae565b60008190506000600260003373ffffffffffffffffffffffffffffffffffffffff1673ffffffffffffffffffffffffffffffffffffffff168152602001908152602001600020905080829080600181540180825580915050600190039060005260206000200160009091909190916101000a81548173ffffffffffffffffffffffffffffffffffffffff021916908373ffffffffffffffffffffffffffffffffffffffff1602179055506000600360008873ffffffffffffffffffffffffffffffffffffffff1673ffffffffffffffffffffffffffffffffffffffff168152602001908152602001600020905080839080600181540180825580915050600190039060005260206000200160009091909190916101000a81548173ffffffffffffffffffffffffffffffffffffffff021916908373ffffffffffffffffffffffffffffffffffffffff1602179055508673ffffffffffffffffffffffffffffffffffffffff163373ffffffffffffffffffffffffffffffffffffffff167f5f080cc5e67992497ccc441e5f4a10e233f647c8af9713f56a96217ee648b3958560405162000ea19190620018f3565b60405180910390a3505050505b505050565b600073ffffffffffffffffffffffffffffffffffffffff166000803373ffffffffffffffffffffffffffffffffffffffff1673ffffffffffffffffffffffffffffffffffffffff16815260200190815260200160002060000160009054906101000a900473ffffffffffffffffffffffffffffffffffffffff1673ffffffffffffffffffffffffffffffffffffffff161462000f86576040517f08c379a000000000000000000000000000000000000000000000000000000000815260040162000f7d90620019db565b60405180910390fd5b6001339080600181540180825580915050600190039060005260206000200160009091909190916101000a81548173ffffffffffffffffffffffffffffffffffffffff021916908373ffffffffffffffffffffffffffffffffffffffff1602179055506040518060e001604052803373ffffffffffffffffffffffffffffffffffffffff16815260200186815260200185815260200184815260200183815260200182600481111562001062577f4e487b7100000000000000000000000000000000000000000000000000000000600052602160045260246000fd5b8152602001600180805490506200107a919062001b68565b8152506000803373ffffffffffffffffffffffffffffffffffffffff1673ffffffffffffffffffffffffffffffffffffffff16815260200190815260200160002060008201518160000160006101000a81548173ffffffffffffffffffffffffffffffffffffffff021916908373ffffffffffffffffffffffffffffffffffffffff160217905550602082015181600101908051906020019062001120929190620012b1565b5060408201518160020190805190602001906200113f929190620012b1565b5060608201518160030190805190602001906200115e929190620012b1565b506080820151816004015560a08201518160050160006101000a81548160ff02191690836004811115620011bb577f4e487b7100000000000000000000000000000000000000000000000000000000600052602160045260246000fd5b021790555060c082015181600601559050503373ffffffffffffffffffffffffffffffffffffffff167fb07ee47d30ff102d3098744f1169fe6dd05b88aa890fe75d363d5e4d16b81ca160405160405180910390a25050505050565b6040518060e00160405280600073ffffffffffffffffffffffffffffffffffffffff168152602001606081526020016060815260200160608152602001600081526020016000600481111562001296577f4e487b7100000000000000000000000000000000000000000000000000000000600052602160045260246000fd5b8152602001600081525090565b6101f28062001ffa83390190565b828054620012bf9062001c4f565b90600052602060002090601f016020900481019282620012e357600085556200132f565b82601f10620012fe57805160ff19168380011785556200132f565b828001600101855582156200132f579182015b828111156200132e57825182559160200191906001019062001311565b5b5090506200133e919062001342565b5090565b5b808211156200135d57600081600090555060010162001343565b5090565b600062001378620013728462001ab0565b62001a87565b9050828152602081018484840111156200139157600080fd5b6200139e84828562001c0a565b509392505050565b600081359050620013b78162001fb4565b92915050565b600081359050620013ce8162001fce565b92915050565b600082601f830112620013e657600080fd5b8135620013f884826020860162001361565b91505092915050565b600081359050620014128162001fdf565b92915050565b6000602082840312156200142b57600080fd5b60006200143b84828501620013a6565b91505092915050565b600080600080600060a086880312156200145d57600080fd5b600086013567ffffffffffffffff8111156200147857600080fd5b6200148688828901620013d4565b955050602086013567ffffffffffffffff811115620014a457600080fd5b620014b288828901620013d4565b945050604086013567ffffffffffffffff811115620014d057600080fd5b620014de88828901620013d4565b9350506060620014f18882890162001401565b92505060806200150488828901620013bd565b9150509295509295909350565b60006200151f838362001761565b905092915050565b620015328162001ba3565b82525050565b620015438162001ba3565b82525050565b6000620015568262001af6565b62001562818562001b24565b935083602082028501620015768562001ae6565b8060005b85811015620015b8578484038952815162001596858262001511565b9450620015a38362001b17565b925060208a019950506001810190506200157a565b50829750879550505050505092915050565b6000620015d78262001b01565b620015e3818562001b35565b9350620015f581856020860162001c19565b620016008162001dea565b840191505092915050565b620016168162001bf6565b82525050565b6000620016298262001b0c565b62001635818562001b46565b93506200164781856020860162001c19565b620016528162001dea565b840191505092915050565b60006200166a8262001b0c565b62001676818562001b57565b93506200168881856020860162001c19565b620016938162001dea565b840191505092915050565b6000620016ad601f8362001b57565b9150620016ba8262001e08565b602082019050919050565b6000620016d4601f8362001b57565b9150620016e18262001e31565b602082019050919050565b6000620016fb601b8362001b57565b9150620017088262001e5a565b602082019050919050565b60006200172260368362001b57565b91506200172f8262001e83565b604082019050919050565b60006200174960148362001b57565b9150620017568262001ed2565b602082019050919050565b600060e0830160008301516200177b600086018262001527565b50602083015184820360208601526200179582826200161c565b91505060408301518482036040860152620017b182826200161c565b91505060608301518482036060860152620017cd82826200161c565b9150506080830151620017e46080860182620018d1565b5060a0830151620017f960a08601826200160b565b5060c08301516200180e60c0860182620018d1565b508091505092915050565b600060e08301600083015162001833600086018262001527565b50602083015184820360208601526200184d82826200161c565b915050604083015184820360408601526200186982826200161c565b915050606083015184820360608601526200188582826200161c565b91505060808301516200189c6080860182620018d1565b5060a0830151620018b160a08601826200160b565b5060c0830151620018c660c0860182620018d1565b508091505092915050565b620018dc8162001bec565b82525050565b620018ed8162001bec565b82525050565b60006020820190506200190a600083018462001538565b92915050565b600060608201905062001927600083018662001538565b62001936602083018562001538565b620019456040830184620018e2565b949350505050565b6000602082019050818103600083015262001969818462001549565b905092915050565b600060208201905081810360008301526200198d8184620015ca565b905092915050565b60006020820190508181036000830152620019b181846200165d565b905092915050565b60006020820190508181036000830152620019d4816200169e565b9050919050565b60006020820190508181036000830152620019f681620016c5565b9050919050565b6000602082019050818103600083015262001a1881620016ec565b9050919050565b6000602082019050818103600083015262001a3a8162001713565b9050919050565b6000602082019050818103600083015262001a5c816200173a565b9050919050565b6000602082019050818103600083015262001a7f818462001819565b905092915050565b600062001a9362001aa6565b905062001aa1828262001c85565b919050565b6000604051905090565b600067ffffffffffffffff82111562001ace5762001acd62001d96565b5b62001ad98262001dea565b9050602081019050919050565b6000819050602082019050919050565b600081519050919050565b600081519050919050565b600081519050919050565b6000602082019050919050565b600082825260208201905092915050565b600082825260208201905092915050565b600082825260208201905092915050565b600082825260208201905092915050565b600062001b758262001bec565b915062001b828362001bec565b92508282101562001b985762001b9762001d09565b5b828203905092915050565b600062001bb08262001bcc565b9050919050565b600081905062001bc78262001f9d565b919050565b600073ffffffffffffffffffffffffffffffffffffffff82169050919050565b6000819050919050565b600062001c038262001bb7565b9050919050565b82818337600083830152505050565b60005b8381101562001c3957808201518184015260208101905062001c1c565b8381111562001c49576000848401525b50505050565b6000600282049050600182168062001c6857607f821691505b6020821081141562001c7f5762001c7e62001d67565b5b50919050565b62001c908262001dea565b810181811067ffffffffffffffff8211171562001cb25762001cb162001d96565b5b80604052505050565b600062001cc88262001bec565b91507fffffffffffffffffffffffffffffffffffffffffffffffffffffffffffffffff82141562001cfe5762001cfd62001d09565b5b600182019050919050565b7f4e487b7100000000000000000000000000000000000000000000000000000000600052601160045260246000fd5b7f4e487b7100000000000000000000000000000000000000000000000000000000600052602160045260246000fd5b7f4e487b7100000000000000000000000000000000000000000000000000000000600052602260045260246000fd5b7f4e487b7100000000000000000000000000000000000000000000000000000000600052604160045260246000fd5b600060033d111562001de75760046000803e62001de460005162001dfb565b90505b90565b6000601f19601f8301169050919050565b60008160e01c9050919050565b7f536572766963652070726f766964657220646f6573206e6f7420657869737400600082015250565b7f536572766963652070726f766964657220616c72656164792065786973747300600082015250565b7f6e6f207469656e6520666f6e646f7320737566756369656e7465730000000000600082015250565b7f70726f7669646572732063616e6e6f742063726561746520736572766963652060008201527f61677265656d7420776974682074686573657276657300000000000000000000602082015250565b7f4e6f20736572766963652070726f766964657273000000000000000000000000600082015250565b600060443d101562001f0d5762001f9a565b62001f1762001aa6565b60043d036004823e80513d602482011167ffffffffffffffff8211171562001f4157505062001f9a565b808201805167ffffffffffffffff81111562001f61575050505062001f9a565b80602083010160043d03850181111562001f8057505050505062001f9a565b62001f918260200185018662001c85565b82955050505050505b90565b6005811062001fb15762001fb062001d38565b5b50565b62001fbf8162001ba3565b811462001fcb57600080fd5b50565b6005811062001fdc57600080fd5b50565b62001fea8162001bec565b811462001ff657600080fd5b5056fe608060405234801561001057600080fd5b506040516101f23803806101f2833981810160405281019061003291906100ec565b826000806101000a81548173ffffffffffffffffffffffffffffffffffffffff021916908373ffffffffffffffffffffffffffffffffffffffff16021790555081600160006101000a81548173ffffffffffffffffffffffffffffffffffffffff021916908373ffffffffffffffffffffffffffffffffffffffff160217905550806002819055505050506101a5565b6000815190506100d181610177565b92915050565b6000815190506100e68161018e565b92915050565b60008060006060848603121561010157600080fd5b600061010f868287016100c2565b9350506020610120868287016100c2565b9250506040610131868287016100d7565b9150509250925092565b60006101468261014d565b9050919050565b600073ffffffffffffffffffffffffffffffffffffffff82169050919050565b6000819050919050565b6101808161013b565b811461018b57600080fd5b50565b6101978161016d565b81146101a257600080fd5b50565b603f806101b36000396000f3fe6080604052600080fdfea26469706673582212201cfd766794ef83a8231994305a78c342f2c1fb7834b50ca8ecc11f37820c47f964736f6c63430008040033a2646970667358221220f86623a61bc253edda3ad0c7a951336e000f91b267b86c7710bc9bd12f89a43f64736f6c63430008040033",
  "linkReferences": {},
  "deployedLinkReferences": {}
}