{
  "_format": "hh-sol-artifact-1",
  "contractName": "ServiceAgreement",
  "sourceName": "contracts/ServiceAgreement.sol",
  "abi": [
    {
      "inputs": [
        {
          "internalType": "address",
          "name": "_client",
          "type": "address"
        },
        {
          "internalType": "address",
          "name": "_provider",
          "type": "address"
        },
        {
          "internalType": "uint256",
          "name": "_termsAmount",
          "type": "uint256"
        }
      ],
      "stateMutability": "nonpayable",
      "type": "constructor"
    },
    {
      "anonymous": false,
      "inputs": [
        {
          "indexed": true,
          "internalType": "address",
          "name": "agreementAddress",
          "type": "address"
        },
        {
          "indexed": false,
          "internalType": "enum ServiceAgreement.Rating",
          "name": "clientRating",
          "type": "uint8"
        },
        {
          "indexed": false,
          "internalType": "enum ServiceAgreement.ClientApprovalStatus",
          "name": "clientApprovalStatus",
          "type": "uint8"
        },
        {
          "indexed": false,
          "internalType": "enum ServiceAgreement.WorkStatus",
          "name": "agreementStatus",
          "type": "uint8"
        }
      ],
      "name": "AgreementFulfilled",
      "type": "event"
    },
    {
      "anonymous": false,
      "inputs": [
        {
          "indexed": true,
          "internalType": "address",
          "name": "agreementAddress",
          "type": "address"
        },
        {
          "indexed": false,
          "internalType": "enum ServiceAgreement.WorkStatus",
          "name": "agreementStatus",
          "type": "uint8"
        }
      ],
      "name": "ServiceStatusUpdate",
      "type": "event"
    },
    {
      "inputs": [],
      "name": "agreementStatus",
      "outputs": [
        {
          "internalType": "enum ServiceAgreement.WorkStatus",
          "name": "",
          "type": "uint8"
        }
      ],
      "stateMutability": "view",
      "type": "function"
    },
    {
      "inputs": [],
      "name": "clientApprovalStatus",
      "outputs": [
        {
          "internalType": "enum ServiceAgreement.ClientApprovalStatus",
          "name": "",
          "type": "uint8"
        }
      ],
      "stateMutability": "view",
      "type": "function"
    },
    {
      "inputs": [],
      "name": "clientRating",
      "outputs": [
        {
          "internalType": "enum ServiceAgreement.Rating",
          "name": "",
          "type": "uint8"
        }
      ],
      "stateMutability": "view",
      "type": "function"
    },
    {
      "inputs": [],
      "name": "deposit",
      "outputs": [],
      "stateMutability": "payable",
      "type": "function"
    },
    {
      "inputs": [],
      "name": "getAgreementDetails",
      "outputs": [
        {
          "internalType": "address",
          "name": "",
          "type": "address"
        },
        {
          "internalType": "address",
          "name": "",
          "type": "address"
        },
        {
          "internalType": "uint256",
          "name": "",
          "type": "uint256"
        },
        {
          "internalType": "enum ServiceAgreement.WorkStatus",
          "name": "",
          "type": "uint8"
        },
        {
          "internalType": "enum ServiceAgreement.ClientApprovalStatus",
          "name": "",
          "type": "uint8"
        },
        {
          "internalType": "enum ServiceAgreement.Rating",
          "name": "",
          "type": "uint8"
        },
        {
          "internalType": "bool",
          "name": "",
          "type": "bool"
        },
        {
          "internalType": "uint256",
          "name": "",
          "type": "uint256"
        }
      ],
      "stateMutability": "view",
      "type": "function"
    },
    {
      "inputs": [
        {
          "internalType": "enum ServiceAgreement.Rating",
          "name": "_rating",
          "type": "uint8"
        }
      ],
      "name": "rateServiceProvider",
      "outputs": [],
      "stateMutability": "nonpayable",
      "type": "function"
    },
    {
      "inputs": [],
      "name": "refund",
      "outputs": [],
      "stateMutability": "nonpayable",
      "type": "function"
    },
    {
      "inputs": [],
      "name": "transferFundsToProvider",
      "outputs": [],
      "stateMutability": "nonpayable",
      "type": "function"
    },
    {
      "inputs": [
        {
          "internalType": "enum ServiceAgreement.ClientApprovalStatus",
          "name": "_approve",
          "type": "uint8"
        }
      ],
      "name": "updateClientApprovalStatus",
      "outputs": [],
      "stateMutability": "nonpayable",
      "type": "function"
    },
    {
      "inputs": [
        {
          "internalType": "enum ServiceAgreement.WorkStatus",
          "name": "_status",
          "type": "uint8"
        }
      ],
      "name": "updateServiceStatus",
      "outputs": [],
      "stateMutability": "nonpayable",
      "type": "function"
    }
  ],
  "bytecode": "0x60806040523480156200001157600080fd5b506040516200199038038062001990833981810160405281019062000037919062000206565b826000806101000a81548173ffffffffffffffffffffffffffffffffffffffff021916908373ffffffffffffffffffffffffffffffffffffffff16021790555081600160006101000a81548173ffffffffffffffffffffffffffffffffffffffff021916908373ffffffffffffffffffffffffffffffffffffffff160217905550806002819055506000600360006101000a81548160ff021916908360038111156200010c577f4e487b7100000000000000000000000000000000000000000000000000000000600052602160045260246000fd5b02179055506000600360016101000a81548160ff021916908360028111156200015e577f4e487b7100000000000000000000000000000000000000000000000000000000600052602160045260246000fd5b02179055506000600360026101000a81548160ff02191690836005811115620001b0577f4e487b7100000000000000000000000000000000000000000000000000000000600052602160045260246000fd5b021790555060006003806101000a81548160ff021916908315150217905550505050620002ce565b600081519050620001e9816200029a565b92915050565b6000815190506200020081620002b4565b92915050565b6000806000606084860312156200021c57600080fd5b60006200022c86828701620001d8565b93505060206200023f86828701620001d8565b92505060406200025286828701620001ef565b9150509250925092565b6000620002698262000270565b9050919050565b600073ffffffffffffffffffffffffffffffffffffffff82169050919050565b6000819050919050565b620002a5816200025c565b8114620002b157600080fd5b50565b620002bf8162000290565b8114620002cb57600080fd5b50565b6116b280620002de6000396000f3fe6080604052600436106100915760003560e01c80638a4a69a8116100595780638a4a69a8146101555780638c89e6511461016c578063b4bd778414610195578063c00a8bff146101c7578063d0e30db0146101f257610091565b806310ccb04c1461009657806340359b34146100c157806350796022146100ea578063590e1ae3146101155780636c0d19441461012c575b600080fd5b3480156100a257600080fd5b506100ab6101fc565b6040516100b8919061110c565b60405180910390f35b3480156100cd57600080fd5b506100e860048036038101906100e39190610db6565b61020f565b005b3480156100f657600080fd5b506100ff6103b2565b60405161010c919061109f565b60405180910390f35b34801561012157600080fd5b5061012a6103c5565b005b34801561013857600080fd5b50610153600480360381019061014e9190610ddf565b6105d1565b005b34801561016157600080fd5b5061016a6106b2565b005b34801561017857600080fd5b50610193600480360381019061018e9190610e08565b610950565b005b3480156101a157600080fd5b506101aa610a90565b6040516101be989796959493929190611021565b60405180910390f35b3480156101d357600080fd5b506101dc610b3c565b6040516101e991906110ba565b60405180910390f35b6101fa610b4f565b005b600360009054906101000a900460ff1681565b60008054906101000a900473ffffffffffffffffffffffffffffffffffffffff1673ffffffffffffffffffffffffffffffffffffffff163373ffffffffffffffffffffffffffffffffffffffff161461029d576040517f08c379a000000000000000000000000000000000000000000000000000000000815260040161029490611187565b60405180910390fd5b600260038111156102d7577f4e487b7100000000000000000000000000000000000000000000000000000000600052602160045260246000fd5b600360009054906101000a900460ff16600381111561031f577f4e487b7100000000000000000000000000000000000000000000000000000000600052602160045260246000fd5b1461035f576040517f08c379a0000000000000000000000000000000000000000000000000000000008152600401610356906111a7565b60405180910390fd5b80600360016101000a81548160ff021916908360028111156103aa577f4e487b7100000000000000000000000000000000000000000000000000000000600052602160045260246000fd5b021790555050565b600360019054906101000a900460ff1681565b60008054906101000a900473ffffffffffffffffffffffffffffffffffffffff1673ffffffffffffffffffffffffffffffffffffffff163373ffffffffffffffffffffffffffffffffffffffff1614610453576040517f08c379a000000000000000000000000000000000000000000000000000000000815260040161044a90611187565b60405180910390fd5b60038054906101000a900460ff16156104a1576040517f08c379a000000000000000000000000000000000000000000000000000000000815260040161049890611247565b60405180910390fd5b6003808111156104da577f4e487b7100000000000000000000000000000000000000000000000000000000600052602160045260246000fd5b600360009054906101000a900460ff166003811115610522577f4e487b7100000000000000000000000000000000000000000000000000000000600052602160045260246000fd5b14610562576040517f08c379a0000000000000000000000000000000000000000000000000000000008152600401610559906111e7565b60405180910390fd5b600047116105a5576040517f08c379a000000000000000000000000000000000000000000000000000000000815260040161059c90611207565b60405180910390fd5b6105cf60008054906101000a900473ffffffffffffffffffffffffffffffffffffffff1647610c2d565b565b60008054906101000a900473ffffffffffffffffffffffffffffffffffffffff1673ffffffffffffffffffffffffffffffffffffffff163373ffffffffffffffffffffffffffffffffffffffff161461065f576040517f08c379a000000000000000000000000000000000000000000000000000000000815260040161065690611187565b60405180910390fd5b80600360026101000a81548160ff021916908360058111156106aa577f4e487b7100000000000000000000000000000000000000000000000000000000600052602160045260246000fd5b021790555050565b600160009054906101000a900473ffffffffffffffffffffffffffffffffffffffff1673ffffffffffffffffffffffffffffffffffffffff163373ffffffffffffffffffffffffffffffffffffffff1614610742576040517f08c379a0000000000000000000000000000000000000000000000000000000008152600401610739906111c7565b60405180910390fd5b60038054906101000a900460ff1615610790576040517f08c379a000000000000000000000000000000000000000000000000000000000815260040161078790611247565b60405180910390fd5b6002544710156107d5576040517f08c379a00000000000000000000000000000000000000000000000000000000081526004016107cc90611147565b60405180910390fd5b6002600381111561080f577f4e487b7100000000000000000000000000000000000000000000000000000000600052602160045260246000fd5b600360009054906101000a900460ff166003811115610857577f4e487b7100000000000000000000000000000000000000000000000000000000600052602160045260246000fd5b1480156108e3575060016002811115610899577f4e487b7100000000000000000000000000000000000000000000000000000000600052602160045260246000fd5b600360019054906101000a900460ff1660028111156108e1577f4e487b7100000000000000000000000000000000000000000000000000000000600052602160045260246000fd5b145b610922576040517f08c379a000000000000000000000000000000000000000000000000000000000815260040161091990611127565b60405180910390fd5b61094e600160009054906101000a900473ffffffffffffffffffffffffffffffffffffffff1647610c2d565b565b600160009054906101000a900473ffffffffffffffffffffffffffffffffffffffff1673ffffffffffffffffffffffffffffffffffffffff163373ffffffffffffffffffffffffffffffffffffffff16146109e0576040517f08c379a00000000000000000000000000000000000000000000000000000000081526004016109d7906111c7565b60405180910390fd5b80600360006101000a81548160ff02191690836003811115610a2b577f4e487b7100000000000000000000000000000000000000000000000000000000600052602160045260246000fd5b02179055503073ffffffffffffffffffffffffffffffffffffffff167f42e61e3c4e439fdecc3d22a276d1291d711d1d2f97418fcf47e4b08222e28cc4600360009054906101000a900460ff16604051610a85919061110c565b60405180910390a250565b60008060008060008060008060008054906101000a900473ffffffffffffffffffffffffffffffffffffffff16600160009054906101000a900473ffffffffffffffffffffffffffffffffffffffff1647600360009054906101000a900460ff16600360019054906101000a900460ff16600360029054906101000a900460ff1660038054906101000a900460ff16600254975097509750975097509750975097509091929394959697565b600360029054906101000a900460ff1681565b60008054906101000a900473ffffffffffffffffffffffffffffffffffffffff1673ffffffffffffffffffffffffffffffffffffffff163373ffffffffffffffffffffffffffffffffffffffff1614610bdd576040517f08c379a0000000000000000000000000000000000000000000000000000000008152600401610bd490611187565b60405180910390fd5b60038054906101000a900460ff1615610c2b576040517f08c379a0000000000000000000000000000000000000000000000000000000008152600401610c2290611227565b60405180910390fd5b565b60016003806101000a81548160ff0219169083151502179055503073ffffffffffffffffffffffffffffffffffffffff167fe4cba55b7670d81288cb513047c736b2465ad19fc9806a75a88ecb6e383e6022600360029054906101000a900460ff16600360019054906101000a900460ff16600360009054906101000a900460ff16604051610cbe939291906110d5565b60405180910390a260008273ffffffffffffffffffffffffffffffffffffffff1682604051610cec9061100c565b60006040518083038185875af1925050503d8060008114610d29576040519150601f19603f3d011682016040523d82523d6000602084013e610d2e565b606091505b5050905080610d72576040517f08c379a0000000000000000000000000000000000000000000000000000000008152600401610d6990611167565b60405180910390fd5b505050565b600081359050610d868161164c565b92915050565b600081359050610d9b8161165c565b92915050565b600081359050610db08161166c565b92915050565b600060208284031215610dc857600080fd5b6000610dd684828501610d77565b91505092915050565b600060208284031215610df157600080fd5b6000610dff84828501610d8c565b91505092915050565b600060208284031215610e1a57600080fd5b6000610e2884828501610da1565b91505092915050565b610e3a81611283565b82525050565b610e4981611295565b82525050565b610e5881611304565b82525050565b610e6781611316565b82525050565b610e7681611328565b82525050565b6000610e89602583611272565b9150610e9482611369565b604082019050919050565b6000610eac602d83611272565b9150610eb7826113b8565b604082019050919050565b6000610ecf601583611272565b9150610eda82611407565b602082019050919050565b6000610ef2601e83611272565b9150610efd82611430565b602082019050919050565b6000610f15604083611272565b9150610f2082611459565b604082019050919050565b6000610f38602883611272565b9150610f43826114a8565b604082019050919050565b6000610f5b603683611272565b9150610f66826114f7565b604082019050919050565b6000610f7e601c83611272565b9150610f8982611546565b602082019050919050565b6000610fa1600083611267565b9150610fac8261156f565b600082019050919050565b6000610fc4602483611272565b9150610fcf82611572565b604082019050919050565b6000610fe7603683611272565b9150610ff2826115c1565b604082019050919050565b611006816112fa565b82525050565b600061101782610f94565b9150819050919050565b600061010082019050611037600083018b610e31565b611044602083018a610e31565b6110516040830189610ffd565b61105e6060830188610e6d565b61106b6080830187610e4f565b61107860a0830186610e5e565b61108560c0830185610e40565b61109260e0830184610ffd565b9998505050505050505050565b60006020820190506110b46000830184610e4f565b92915050565b60006020820190506110cf6000830184610e5e565b92915050565b60006060820190506110ea6000830186610e5e565b6110f76020830185610e4f565b6111046040830184610e6d565b949350505050565b60006020820190506111216000830184610e6d565b92915050565b6000602082019050818103600083015261114081610e7c565b9050919050565b6000602082019050818103600083015261116081610e9f565b9050919050565b6000602082019050818103600083015261118081610ec2565b9050919050565b600060208201905081810360008301526111a081610ee5565b9050919050565b600060208201905081810360008301526111c081610f08565b9050919050565b600060208201905081810360008301526111e081610f2b565b9050919050565b6000602082019050818103600083015261120081610f4e565b9050919050565b6000602082019050818103600083015261122081610f71565b9050919050565b6000602082019050818103600083015261124081610fb7565b9050919050565b6000602082019050818103600083015261126081610fda565b9050919050565b600081905092915050565b600082825260208201905092915050565b600061128e826112da565b9050919050565b60008115159050919050565b60008190506112af82611610565b919050565b60008190506112c282611624565b919050565b60008190506112d582611638565b919050565b600073ffffffffffffffffffffffffffffffffffffffff82169050919050565b6000819050919050565b600061130f826112a1565b9050919050565b6000611321826112b4565b9050919050565b6000611333826112c7565b9050919050565b7f4e487b7100000000000000000000000000000000000000000000000000000000600052602160045260246000fd5b7f5365727669636520776173206e6f7420636f6d706c65746564206f722061707060008201527f726f766564000000000000000000000000000000000000000000000000000000602082015250565b7f436f6e74726163742062616c616e636520726571756972656d656e742068617360008201527f206e6f74206265656e206d657400000000000000000000000000000000000000602082015250565b7f5472616e7366657220756e7375636365737366756c0000000000000000000000600082015250565b7f4f6e6c792074686520636c69656e742063616e2063616c6c20746869732e0000600082015250565b7f54686520636f6e7472616374206d757374206265206d61726b6564206173206360008201527f6f6d706c657465642062792074686520736572766963652070726f7669646572602082015250565b7f4f6e6c792074686520736572766963652070726f76696465722063616e20636160008201527f6c6c20746869732e000000000000000000000000000000000000000000000000602082015250565b7f5468652061677265656d656e7420686173206e6f74206265656e206d61726b6560008201527f642061732057696c6c204e6f7420436f6d706c65746500000000000000000000602082015250565b7f546865726520617265206e6f2066756e647320746f20726566756e6400000000600082015250565b50565b7f41677265656d656e742068617320616c7265616479206265656e2066756c666960008201527f6c6c656400000000000000000000000000000000000000000000000000000000602082015250565b7f546869732061677265656d656e742068617320616c7265616479206265656e2060008201527f66756c66696c6c6564206f72206e756c6c696669656400000000000000000000602082015250565b600381106116215761162061133a565b5b50565b600681106116355761163461133a565b5b50565b600481106116495761164861133a565b5b50565b6003811061165957600080fd5b50565b6006811061166957600080fd5b50565b6004811061167957600080fd5b5056fea2646970667358221220a055a4e8b30b8812c97e41e57ab17c8ac7e8d44161a6b5a14b651877c469c17e64736f6c63430008040033",
  "linkReferences": {},
  "deployedLinkReferences": {}
}