{
  "_format": "hh-sol-artifact-1",
  "contractName": "ServiceManager",
  "sourceName": "contracts/.sol",
  "abi": [
    {
      "anonymous": false,
      "inputs": [
        {
          "indexed": true,
          "internalType": "address",
          "name": "owner",
          "type": "address"
        }
      ],
      "name": "RegisterServiceProvider",
      "type": "event"
    },
    {
      "inputs": [
        {
          "internalType": "string",
          "name": "_companyName",
          "type": "string"
        },
        {
          "internalType": "string",
          "name": "_email",
          "type": "string"
        },
        {
          "internalType": "string",
          "name": "_phone",
          "type": "string"
        },
        {
          "internalType": "uint256",
          "name": "_serviceAmount",
          "type": "uint256"
        },
        {
          "internalType": "enum ServiceManager.ServiceCategory",
          "name": "_serviceCategory",
          "type": "uint8"
        }
      ],
      "name": "createNewServiceProvider",
      "outputs": [],
      "stateMutability": "nonpayable",
      "type": "function"
    }
  ],
  "bytecode": "0x608060405234801561001057600080fd5b506106c8806100206000396000f3fe608060405234801561001057600080fd5b506004361061002b5760003560e01c8063c35eb8da14610030575b600080fd5b61004a60048036038101906100459190610408565b61004c565b005b6001339080600181540180825580915050600190039060005260206000200160009091909190916101000a81548173ffffffffffffffffffffffffffffffffffffffff021916908373ffffffffffffffffffffffffffffffffffffffff1602179055506040518060e001604052803373ffffffffffffffffffffffffffffffffffffffff168152602001868152602001858152602001848152602001838152602001826004811115610127577f4e487b7100000000000000000000000000000000000000000000000000000000600052602160045260246000fd5b81526020016001808054905061013d919061051d565b8152506000803373ffffffffffffffffffffffffffffffffffffffff1673ffffffffffffffffffffffffffffffffffffffff16815260200190815260200160002060008201518160000160006101000a81548173ffffffffffffffffffffffffffffffffffffffff021916908373ffffffffffffffffffffffffffffffffffffffff16021790555060208201518160010190805190602001906101e19291906102d3565b5060408201518160020190805190602001906101fe9291906102d3565b50606082015181600301908051906020019061021b9291906102d3565b506080820151816004015560a08201518160050160006101000a81548160ff02191690836004811115610277577f4e487b7100000000000000000000000000000000000000000000000000000000600052602160045260246000fd5b021790555060c082015181600601559050503373ffffffffffffffffffffffffffffffffffffffff167fb07ee47d30ff102d3098744f1169fe6dd05b88aa890fe75d363d5e4d16b81ca160405160405180910390a25050505050565b8280546102df9061056a565b90600052602060002090601f0160209004810192826103015760008555610348565b82601f1061031a57805160ff1916838001178555610348565b82800160010185558215610348579182015b8281111561034757825182559160200191906001019061032c565b5b5090506103559190610359565b5090565b5b8082111561037257600081600090555060010161035a565b5090565b6000610389610384846104ec565b6104c7565b9050828152602081018484840111156103a157600080fd5b6103ac84828561055b565b509392505050565b6000813590506103c38161066b565b92915050565b600082601f8301126103da57600080fd5b81356103ea848260208601610376565b91505092915050565b6000813590506104028161067b565b92915050565b600080600080600060a0868803121561042057600080fd5b600086013567ffffffffffffffff81111561043a57600080fd5b610446888289016103c9565b955050602086013567ffffffffffffffff81111561046357600080fd5b61046f888289016103c9565b945050604086013567ffffffffffffffff81111561048c57600080fd5b610498888289016103c9565b93505060606104a9888289016103f3565b92505060806104ba888289016103b4565b9150509295509295909350565b60006104d16104e2565b90506104dd828261059c565b919050565b6000604051905090565b600067ffffffffffffffff8211156105075761050661062b565b5b6105108261065a565b9050602081019050919050565b600061052882610551565b915061053383610551565b925082821015610546576105456105cd565b5b828203905092915050565b6000819050919050565b82818337600083830152505050565b6000600282049050600182168061058257607f821691505b60208210811415610596576105956105fc565b5b50919050565b6105a58261065a565b810181811067ffffffffffffffff821117156105c4576105c361062b565b5b80604052505050565b7f4e487b7100000000000000000000000000000000000000000000000000000000600052601160045260246000fd5b7f4e487b7100000000000000000000000000000000000000000000000000000000600052602260045260246000fd5b7f4e487b7100000000000000000000000000000000000000000000000000000000600052604160045260246000fd5b6000601f19601f8301169050919050565b6005811061067857600080fd5b50565b61068481610551565b811461068f57600080fd5b5056fea2646970667358221220917ab550bbcec67562e1851d9458b38233af670f36617318ac5d0d94e009369c64736f6c63430008040033",
  "linkReferences": {},
  "deployedLinkReferences": {}
}